:03000000020E03EA
:0C0E0300787FE4F6D8FD758178020E4A75
:100FFE002A2A2A4F62737461636C652041766F6989
:10100E0064616E63652047616D652A2A2A0D0A00A8
:10101E00496E636F727265637420436F6D6D616E9E
:10102E00640D0A002000440053636F72653A20007D
:10103E00486967682053636F72653A20002A000082
:04104E00000000009E
:100F8D00C101C10002650001026300030269000195
:100F9D000C6D00000000000000000000000020208B
:100FAD002100000000000000000000000000000013
:100FBD000000000000000000000000000000000024
:100FCD000020204100000000000000000000000093
:100FDD000000000000000000000000000000000004
:100FED00000000000267001F02610000026B00009C
:10105200E4F5A0C282C280C2817F38FE1211021260
:1010620010DA7F067E001211021210DA7F0C7E0067
:101072001211021210DA1210FE1210DA7F807E00B4
:0310820002110256
:0410DA007F047E0011
:1010DE00E4FDFCC3ED9FEC9E5015E4FBFA0BBB0048
:0F10EE00010ABA01F8BB7EF50DBD00010C80E4CC
:0110FD0022D0
:060E8F007BFF7A10794D93
:100E95008E108F118B128A1389147C037DE8120C36
:100EA50080EF2430120C4CAE10AF117C037DE8129C
:100EB5000C807E007F64CFCDCFCECCCE120C80EFE0
:100EC5002430AB12AA13A914900001120C5EAE10C7
:100ED500AF117C007D64120C807E007F0ACFCDCFE0
:100EE500CECCCE120C80EF2430AB12AA13A91490ED
:100EF5000002120C5EAE10AF117C007D0A120C8050
:0F0F0500ED2430AB12AA13A914900003020C5E66
:0410FE007F017E00F0
:10110200C280C281D2828FA07F0A7E001210DEC20C
:02111200822237
:10111400D280C281D2828FA07F0A7E001210DEC2EA
:02112400822225
:0B1085007E001211027BFF7A1079340C
:101090008B108A118912AB10AA11A912120C33609D
:1010A000130512E5127002051114F9120C33FF1228
:0510B000111480E22292
:10112600758920758DCC759850D28ED2AFD2AC22EF
:081150008F993001FDC201225C
:1010B5008B098A0A890BAB09AA0AA90B120C3360A2
:1010C50013050BE50B7002050A14F9120C33FF1218
:0510D500115080E22231
:09114600E4FF3000FDC200AF9986
:01114F00227D
:0300230002113691
:10113600309905C299D20132309804C298D2003251
:060800008B108A11891221
:10080600120CD5AEF064014E7047AB13AA14A915AD
:10081600F5F0120D00AB13AA14A915900002E475A9
:10082600F001120D1F900004E475F001120D1F90E7
:100836000006E4F5F0120D1F900008E4F5F0120D25
:100846001F90000AE4F5F0120D1F7C007D04020AD9
:100856001BAB10AA11A912120CD5FFAEF064044E00
:100866007047AB13AA14A915F5F0120D00AB13AA25
:1008760014A915900002E4F5F0120D1F900004E48F
:10088600F5F0120D1F900006E4F5F0120D1F900012
:1008960008E475F001120D1F90000AE475F00112CC
:1008A6000D1F7C007D06020A1BEF64064E7046ABE8
:1008B60013AA14A915F5F0120D00AB13AA14A91565
:1008C600900002E475F001120D1F900004E4F5F0AB
:1008D600120D1F900006E4F5F0120D1F900008E4BB
:1008E600F5F0120D1F90000AE4F5F0120D1F7C00C2
:1008F6007D07020A1BEF64074E7046AB13AA14A9C4
:1009060015F5F0120D00AB13AA14A915900002E418
:10091600F5F0120D1F900004E4F5F0120D1F900083
:1009260006E4F5F0120D1F900008E4F5F0120D1F15
:1009360090000AE475F001120D1F7C007D03020A87
:100946001BEF64034E7046AB13AA14A915F5F012FB
:100956000D00AB13AA14A915900002E4F5F0120DD0
:100966001F900004E4F5F0120D1F900006E4F5F068
:10097600120D1F900008E475F001120D1F90000A79
:10098600E4F5F0120D1F7C007D05020A1BEF6405DD
:100996004EAB13AA14A915703FF5F0120D00AB1358
:1009A600AA14A915900002E4F5F0120D1F90000498
:1009B600E475F001120D1F900006E4F5F0120D1F0C
:1009C600900008E4F5F0120D1F90000AE4F5F0120D
:1009D6000D1F7C007D02803DE4F5F0120D00AB1387
:1009E600AA14A915900002E4F5F0120D1F90000458
:1009F600E4F5F0120D1F900006E4F5F0120D1F90BD
:100A06000008E4F5F0120D1F90000AE4F5F0120D4F
:100A16001F7C007D01AB10AA11A912EC8DF0020D0E
:010A260000CF
:100D4C00E566640145657008E52664014525601675
:100D5C00E566640245656003020E02E546640145E2
:100D6C00456003020E02D3E562956CE56B6480F876
:100D7C00E561648098400685616B85626C1210FE9B
:100D8C007F327E001210DE7F801211027BFF7A1000
:100D9C0079361210907F877E00121102AF62AE611D
:100DAC00120E8F7BFF7A10794D1210907FC07E004F
:100DBC001211027BFF7A10793E1210907FCC7E00CC
:100DCC00121102AF6CAE6B120E8F7BFF7A10794D45
:100DDC001210907FB87E0B1210DE1210FE7565009B
:100DEC00756601756300756403E4F561F562F541A0
:070DFC00F542F561F56222EA
:100F1400E4F508D2AFD2A9F58CF58AD28C1210521E
:100F24001211267BFF7A0F79FE1210B57F82121000
:100F3400851211468F08E508249F601E24F070373F
:100F44007565007566017FC27E001211027BFF7A0F
:100F54001079321210907F828018756500756602D0
:100F64007F827E001211027BFF7A10793212109078
:100F74007FC212108580097BFF7A10791E1210B58A
:090F84007F647E001210DE80A8DB
:03000B00020A27BF
:100A2700C0E0C0F0C083C082C0D075D000C000C095
:100A370001C002C003C004C005C006C007C28CC203
:100A47008DE5684567600BE56815687002156702F4
:020A57000C1081
:080A5900E56464034563706964
:100A6100F51375140075156DFB7A0079691208008C
:100A7100750E00750F00AF0FEF25E02423F8E6FC9B
:100A810008E6FDEF25E02421F8A60408A605AF0F2E
:100A9100EF25E02443F8E6FC08E6FDEF25E02441DC
:100AA100F8A60408A605050FE50F7002050E640FF0
:100AB100450E70C2856D3F856E4085735F8574609C
:060AC1007563007564017D
:0B0AC700020B82E56464014563705877
:100AD200F50EF50FAF0FEF25E02423F8E6FC08E64C
:100AE200FDEF25E02421F8A60408A605AF0FEF25A7
:100AF200E02443F8E6FC08E6FDEF25E02441F8A6F1
:100B02000408A605050FE50F7002050E640F450ED9
:100B120070C2856F3F85704085755F85766005641C
:060B2200E564705C056350
:020B28008058F3
:100B2A00750E00750F00AF0FEF25E02423F8E6FCE1
:100B3A0008E6FDEF25E02421F8A60408A605AF0F74
:100B4A00EF25E02443F8E6FC08E6FDEF25E0244122
:100B5A00F8A60408A605050FE50F7002050E640F36
:100B6A00450E70C285713F85724085775F857860D2
:080B7A000564E56470020563E7
:100B82000562E56270020561750C00750D00E50DE8
:100B92002480FFE4350CFE121102E50D25E024212C
:100BA200F8E6FE08E64E7BFF70067A107932800482
:100BB2007A10794B121090E50D24C0FFE4350CFE3B
:100BC200121102E50D25E02441F8E6FE08E64E7B0F
:100BD200FF70067A10793280047A10794B121090E5
:100BE200050DE50D7002050CC39410E50C94004050
:100BF2009DE5666401456570057F82FE80047FC2C3
:0E0C02007E00121087120D4C75670075681F7A
:100C1000758C00758A00D28CD007D006D005D00420
:100C2000D003D002D001D000D0D0D082D083D0F079
:030C3000D0E032DF
:100E0F00020F14E493A3F8E493A34003F68001F2D6
:100E1F0008DFF48029E493A3F85407240CC8C333E4
:100E2F00C4540F4420C8834004F456800146F6DFB3
:100E3F00E4800B0102040810204080900F8DE47EA7
:100E4F00019360BCA3FF543F30E509541FFEE493A8
:100E5F00A360010ECF54C025E060A840B8E493A36F
:100E6F00FAE493A3F8E493A3C8C582C8CAC583CA9A
:100E7F00F0A3C8C582C8CAC583CADFE9DEE780BE52
:010FFD0000F3
:100C3300BB010689828A83E0225002E722BBFE02BF
:090C4300E32289828A83E49322F2
:100C4C00BB010689828A83F0225002F722BBFE0187
:020C5C00F32281
:100C5E00F8BB010DE58229F582E5833AF583E8F0CC
:100C6E00225006E92582C8F622BBFE05E92582C878
:020C7E00F22260
:100C8000BC000BBE0029EF8DF084FFADF022E4CC58
:100C9000F875F008EF2FFFEE33FEEC33FCEE9DEC21
:100CA000984005FCEE9DFE0FD5F0E9E4CEFD22ED67
:100CB000F8F5F0EE8420D21CFEADF075F008EF2FB1
:100CC000FFED33FD4007985006D5F0F222C398FDA2
:050CD0000FD5F0EA223F
:100CD500BB010A89828A83E0F5F0A3E022500687EA
:100CE500F009E71922BBFE07E3F5F009E3192289AC
:0B0CF500828A83E493F5F074019322DF
:100D0000BB010A89828A83F0E5F0A3F0225006F73E
:0F0D100009A7F01922BBFE06F3E5F009F319223B
:100D1F00F8BB0111E58229F582E5833AF583E8F006
:100D2F00E5F0A3F0225009E92582C8F608A6F022C3
:0D0D3F00BBFE09E92582C8F2E5F008F222AA
:00000001FF
